{
  "_format": "hh-sol-artifact-1",
  "contractName": "DragonHatch",
  "sourceName": "contracts/DragonHatch_prototype.sol",
  "abi": [
    {
      "inputs": [
        {
          "internalType": "address",
          "name": "marketplaceAddress",
          "type": "address"
        }
      ],
      "stateMutability": "nonpayable",
      "type": "constructor"
    },
    {
      "anonymous": false,
      "inputs": [
        {
          "indexed": true,
          "internalType": "address",
          "name": "owner",
          "type": "address"
        },
        {
          "indexed": true,
          "internalType": "address",
          "name": "approved",
          "type": "address"
        },
        {
          "indexed": true,
          "internalType": "uint256",
          "name": "tokenId",
          "type": "uint256"
        }
      ],
      "name": "Approval",
      "type": "event"
    },
    {
      "anonymous": false,
      "inputs": [
        {
          "indexed": true,
          "internalType": "address",
          "name": "owner",
          "type": "address"
        },
        {
          "indexed": true,
          "internalType": "address",
          "name": "operator",
          "type": "address"
        },
        {
          "indexed": false,
          "internalType": "bool",
          "name": "approved",
          "type": "bool"
        }
      ],
      "name": "ApprovalForAll",
      "type": "event"
    },
    {
      "anonymous": false,
      "inputs": [
        {
          "indexed": false,
          "internalType": "uint256",
          "name": "dragonId",
          "type": "uint256"
        },
        {
          "indexed": false,
          "internalType": "uint256",
          "name": "dna",
          "type": "uint256"
        }
      ],
      "name": "NewDragon",
      "type": "event"
    },
    {
      "anonymous": false,
      "inputs": [
        {
          "indexed": true,
          "internalType": "address",
          "name": "from",
          "type": "address"
        },
        {
          "indexed": true,
          "internalType": "address",
          "name": "to",
          "type": "address"
        },
        {
          "indexed": true,
          "internalType": "uint256",
          "name": "tokenId",
          "type": "uint256"
        }
      ],
      "name": "Transfer",
      "type": "event"
    },
    {
      "inputs": [
        {
          "internalType": "address",
          "name": "to",
          "type": "address"
        },
        {
          "internalType": "uint256",
          "name": "tokenId",
          "type": "uint256"
        }
      ],
      "name": "approve",
      "outputs": [],
      "stateMutability": "nonpayable",
      "type": "function"
    },
    {
      "inputs": [
        {
          "internalType": "address",
          "name": "owner",
          "type": "address"
        }
      ],
      "name": "balanceOf",
      "outputs": [
        {
          "internalType": "uint256",
          "name": "",
          "type": "uint256"
        }
      ],
      "stateMutability": "view",
      "type": "function"
    },
    {
      "inputs": [
        {
          "internalType": "string",
          "name": "_name",
          "type": "string"
        }
      ],
      "name": "createRandomDragon",
      "outputs": [],
      "stateMutability": "nonpayable",
      "type": "function"
    },
    {
      "inputs": [
        {
          "internalType": "uint256",
          "name": "",
          "type": "uint256"
        }
      ],
      "name": "dragonToOwner",
      "outputs": [
        {
          "internalType": "address",
          "name": "",
          "type": "address"
        }
      ],
      "stateMutability": "view",
      "type": "function"
    },
    {
      "inputs": [
        {
          "internalType": "uint256",
          "name": "",
          "type": "uint256"
        }
      ],
      "name": "dragons",
      "outputs": [
        {
          "internalType": "string",
          "name": "name",
          "type": "string"
        },
        {
          "internalType": "uint256",
          "name": "dna",
          "type": "uint256"
        },
        {
          "internalType": "uint256",
          "name": "attributes",
          "type": "uint256"
        },
        {
          "internalType": "uint32",
          "name": "readyTime",
          "type": "uint32"
        },
        {
          "internalType": "uint16",
          "name": "winCount",
          "type": "uint16"
        },
        {
          "internalType": "uint16",
          "name": "lossCount",
          "type": "uint16"
        },
        {
          "internalType": "uint256",
          "name": "head",
          "type": "uint256"
        },
        {
          "internalType": "uint256",
          "name": "wing",
          "type": "uint256"
        },
        {
          "internalType": "uint256",
          "name": "claw",
          "type": "uint256"
        },
        {
          "internalType": "uint256",
          "name": "legs",
          "type": "uint256"
        },
        {
          "internalType": "uint256",
          "name": "tail",
          "type": "uint256"
        },
        {
          "internalType": "uint256",
          "name": "experience",
          "type": "uint256"
        }
      ],
      "stateMutability": "view",
      "type": "function"
    },
    {
      "inputs": [
        {
          "internalType": "uint256",
          "name": "tokenId",
          "type": "uint256"
        }
      ],
      "name": "getApproved",
      "outputs": [
        {
          "internalType": "address",
          "name": "",
          "type": "address"
        }
      ],
      "stateMutability": "view",
      "type": "function"
    },
    {
      "inputs": [
        {
          "internalType": "uint256",
          "name": "tokenId",
          "type": "uint256"
        }
      ],
      "name": "getDragonOverView",
      "outputs": [
        {
          "internalType": "string",
          "name": "",
          "type": "string"
        },
        {
          "internalType": "uint256",
          "name": "",
          "type": "uint256"
        },
        {
          "internalType": "uint256",
          "name": "",
          "type": "uint256"
        },
        {
          "internalType": "uint256",
          "name": "",
          "type": "uint256"
        },
        {
          "internalType": "uint256",
          "name": "",
          "type": "uint256"
        }
      ],
      "stateMutability": "view",
      "type": "function"
    },
    {
      "inputs": [
        {
          "internalType": "uint256",
          "name": "tokenId",
          "type": "uint256"
        }
      ],
      "name": "getDragonStats",
      "outputs": [
        {
          "internalType": "uint256",
          "name": "",
          "type": "uint256"
        },
        {
          "internalType": "uint256",
          "name": "",
          "type": "uint256"
        },
        {
          "internalType": "uint256",
          "name": "",
          "type": "uint256"
        },
        {
          "internalType": "uint256",
          "name": "",
          "type": "uint256"
        },
        {
          "internalType": "uint256",
          "name": "",
          "type": "uint256"
        },
        {
          "internalType": "uint256",
          "name": "",
          "type": "uint256"
        },
        {
          "internalType": "uint256",
          "name": "",
          "type": "uint256"
        }
      ],
      "stateMutability": "view",
      "type": "function"
    },
    {
      "inputs": [
        {
          "internalType": "uint256",
          "name": "tokenId",
          "type": "uint256"
        }
      ],
      "name": "getLevel",
      "outputs": [
        {
          "internalType": "uint256",
          "name": "",
          "type": "uint256"
        }
      ],
      "stateMutability": "view",
      "type": "function"
    },
    {
      "inputs": [],
      "name": "getNumberOfDragons",
      "outputs": [
        {
          "internalType": "uint256",
          "name": "",
          "type": "uint256"
        }
      ],
      "stateMutability": "view",
      "type": "function"
    },
    {
      "inputs": [
        {
          "internalType": "address",
          "name": "owner",
          "type": "address"
        },
        {
          "internalType": "address",
          "name": "operator",
          "type": "address"
        }
      ],
      "name": "isApprovedForAll",
      "outputs": [
        {
          "internalType": "bool",
          "name": "",
          "type": "bool"
        }
      ],
      "stateMutability": "view",
      "type": "function"
    },
    {
      "inputs": [],
      "name": "name",
      "outputs": [
        {
          "internalType": "string",
          "name": "",
          "type": "string"
        }
      ],
      "stateMutability": "view",
      "type": "function"
    },
    {
      "inputs": [
        {
          "internalType": "uint256",
          "name": "tokenId",
          "type": "uint256"
        }
      ],
      "name": "ownerOf",
      "outputs": [
        {
          "internalType": "address",
          "name": "",
          "type": "address"
        }
      ],
      "stateMutability": "view",
      "type": "function"
    },
    {
      "inputs": [
        {
          "internalType": "address",
          "name": "from",
          "type": "address"
        },
        {
          "internalType": "address",
          "name": "to",
          "type": "address"
        },
        {
          "internalType": "uint256",
          "name": "tokenId",
          "type": "uint256"
        }
      ],
      "name": "safeTransferFrom",
      "outputs": [],
      "stateMutability": "nonpayable",
      "type": "function"
    },
    {
      "inputs": [
        {
          "internalType": "address",
          "name": "from",
          "type": "address"
        },
        {
          "internalType": "address",
          "name": "to",
          "type": "address"
        },
        {
          "internalType": "uint256",
          "name": "tokenId",
          "type": "uint256"
        },
        {
          "internalType": "bytes",
          "name": "_data",
          "type": "bytes"
        }
      ],
      "name": "safeTransferFrom",
      "outputs": [],
      "stateMutability": "nonpayable",
      "type": "function"
    },
    {
      "inputs": [
        {
          "internalType": "address",
          "name": "operator",
          "type": "address"
        },
        {
          "internalType": "bool",
          "name": "approved",
          "type": "bool"
        }
      ],
      "name": "setApprovalForAll",
      "outputs": [],
      "stateMutability": "nonpayable",
      "type": "function"
    },
    {
      "inputs": [
        {
          "internalType": "bytes4",
          "name": "interfaceId",
          "type": "bytes4"
        }
      ],
      "name": "supportsInterface",
      "outputs": [
        {
          "internalType": "bool",
          "name": "",
          "type": "bool"
        }
      ],
      "stateMutability": "view",
      "type": "function"
    },
    {
      "inputs": [],
      "name": "symbol",
      "outputs": [
        {
          "internalType": "string",
          "name": "",
          "type": "string"
        }
      ],
      "stateMutability": "view",
      "type": "function"
    },
    {
      "inputs": [
        {
          "internalType": "uint256",
          "name": "tokenId",
          "type": "uint256"
        }
      ],
      "name": "tokenURI",
      "outputs": [
        {
          "internalType": "string",
          "name": "",
          "type": "string"
        }
      ],
      "stateMutability": "view",
      "type": "function"
    },
    {
      "inputs": [
        {
          "internalType": "address",
          "name": "from",
          "type": "address"
        },
        {
          "internalType": "address",
          "name": "to",
          "type": "address"
        },
        {
          "internalType": "uint256",
          "name": "tokenId",
          "type": "uint256"
        }
      ],
      "name": "transferFrom",
      "outputs": [],
      "stateMutability": "nonpayable",
      "type": "function"
    }
  ],
  "bytecode": "0x6080604052601060088190556200001890600a620002ab565b6009556001600a553480156200002d57600080fd5b5060405162003002380380620030028339810160408190526200005091620002c0565b604080518082018252601581527f4669766520456c656d656e74616c20447261676f6e000000000000000000000060208083019182528351808501909452600384526211915160ea1b908401528151919291620000b091600091620000f0565b508051620000c6906001906020840190620000f0565b5050600780546001600160a01b0319166001600160a01b0393909316929092179091555062000328565b828054620000fe90620002eb565b90600052602060002090601f0160209004810192826200012257600085556200016d565b82601f106200013d57805160ff19168380011785556200016d565b828001600101855582156200016d579182015b828111156200016d57825182559160200191906001019062000150565b506200017b9291506200017f565b5090565b5b808211156200017b576000815560010162000180565b634e487b7160e01b600052601160045260246000fd5b600181815b80851115620001ed578160001904821115620001d157620001d162000196565b80851615620001df57918102915b93841c9390800290620001b1565b509250929050565b6000826200020657506001620002a5565b816200021557506000620002a5565b81600181146200022e5760028114620002395762000259565b6001915050620002a5565b60ff8411156200024d576200024d62000196565b50506001821b620002a5565b5060208310610133831016604e8410600b84101617156200027e575081810a620002a5565b6200028a8383620001ac565b8060001904821115620002a157620002a162000196565b0290505b92915050565b6000620002b98383620001f5565b9392505050565b600060208284031215620002d357600080fd5b81516001600160a01b0381168114620002b957600080fd5b600181811c908216806200030057607f821691505b602082108114156200032257634e487b7160e01b600052602260045260246000fd5b50919050565b612cca80620003386000396000f3fe608060405234801561001057600080fd5b506004361061012c5760003560e01c80637b3b0a2f116100ad578063c0b70cfb11610071578063c0b70cfb146102de578063c87b56dd146102e6578063d2a59d69146102f9578063e985e9c514610324578063fdccc83e1461036057600080fd5b80637b3b0a2f1461027457806386481d401461029d57806395d89b41146102b0578063a22cb465146102b8578063b88d4fde146102cb57600080fd5b806323b872dd116100f457806323b872dd146101d257806342842e0e146101e55780636352211e146101f857806370a082311461020b5780637a00a6491461022c57600080fd5b806301ffc9a71461013157806306fdde0314610159578063081812fc1461016e578063095ea7b3146101995780630b52d884146101ae575b600080fd5b61014461013f366004612134565b610373565b60405190151581526020015b60405180910390f35b6101616103c5565b60405161015091906121a9565b61018161017c3660046121bc565b610457565b6040516001600160a01b039091168152602001610150565b6101ac6101a73660046121f1565b6104f1565b005b6101c16101bc3660046121bc565b610607565b60405161015095949392919061221b565b6101ac6101e0366004612252565b610806565b6101ac6101f3366004612252565b610837565b6101816102063660046121bc565b610852565b61021e61021936600461228e565b6108c9565b604051908152602001610150565b61023f61023a3660046121bc565b610950565b604080519788526020880196909652948601939093526060850191909152608084015260a083015260c082015260e001610150565b6101816102823660046121bc565b600c602052600090815260409020546001600160a01b031681565b61021e6102ab3660046121bc565b610a77565b610161610aa6565b6101ac6102c63660046122a9565b610ab5565b6101ac6102d9366004612371565b610b7a565b600b5461021e565b6101616102f43660046121bc565b610bb2565b61030c6103073660046121bc565b610bc6565b6040516101509c9b9a999897969594939291906123ed565b610144610332366004612463565b6001600160a01b03918216600090815260056020908152604080832093909416825291909152205460ff1690565b6101ac61036e366004612496565b610cd1565b60006001600160e01b031982166380ac58cd60e01b14806103a457506001600160e01b03198216635b5e139f60e01b145b806103bf57506301ffc9a760e01b6001600160e01b03198316145b92915050565b6060600080546103d4906124df565b80601f0160208091040260200160405190810160405280929190818152602001828054610400906124df565b801561044d5780601f106104225761010080835404028352916020019161044d565b820191906000526020600020905b81548152906001019060200180831161043057829003601f168201915b5050505050905090565b6000818152600260205260408120546001600160a01b03166104d55760405162461bcd60e51b815260206004820152602c60248201527f4552433732313a20617070726f76656420717565727920666f72206e6f6e657860448201526b34b9ba32b73a103a37b5b2b760a11b60648201526084015b60405180910390fd5b506000908152600460205260409020546001600160a01b031690565b60006104fc82610852565b9050806001600160a01b0316836001600160a01b0316141561056a5760405162461bcd60e51b815260206004820152602160248201527f4552433732313a20617070726f76616c20746f2063757272656e74206f776e656044820152603960f91b60648201526084016104cc565b336001600160a01b038216148061058657506105868133610332565b6105f85760405162461bcd60e51b815260206004820152603860248201527f4552433732313a20617070726f76652063616c6c6572206973206e6f74206f7760448201527f6e6572206e6f7220617070726f76656420666f7220616c6c000000000000000060648201526084016104cc565b6106028383610ced565b505050565b6060600080600080600b868154811061062257610622612514565b90600052602060002090600a0201600001600b878154811061064657610646612514565b90600052602060002090600a020160020154600b888154811061066b5761066b612514565b90600052602060002090600a020160080154600b898154811061069057610690612514565b90600052602060002090600a020160070154600b8a815481106106b5576106b5612514565b90600052602060002090600a020160060154600b8b815481106106da576106da612514565b90600052602060002090600a020160050154600b8c815481106106ff576106ff612514565b90600052602060002090600a02016004015461071b9190612540565b6107259190612540565b61072f9190612540565b6107399190612540565b61074289610a77565b600b8a8154811061075557610755612514565b90600052602060002090600a020160090154848054610773906124df565b80601f016020809104026020016040519081016040528092919081815260200182805461079f906124df565b80156107ec5780601f106107c1576101008083540402835291602001916107ec565b820191906000526020600020905b8154815290600101906020018083116107cf57829003601f168201915b505050505094509450945094509450945091939590929450565b6108103382610d5b565b61082c5760405162461bcd60e51b81526004016104cc90612558565b610602838383610e52565b61060283838360405180602001604052806000815250610b7a565b6000818152600260205260408120546001600160a01b0316806103bf5760405162461bcd60e51b815260206004820152602960248201527f4552433732313a206f776e657220717565727920666f72206e6f6e657869737460448201526832b73a103a37b5b2b760b91b60648201526084016104cc565b60006001600160a01b0382166109345760405162461bcd60e51b815260206004820152602a60248201527f4552433732313a2062616c616e636520717565727920666f7220746865207a65604482015269726f206164647265737360b01b60648201526084016104cc565b506001600160a01b031660009081526003602052604090205490565b6000806000806000806000600b888154811061096e5761096e612514565b90600052602060002090600a020160020154600b898154811061099357610993612514565b90600052602060002090600a020160040154600b8a815481106109b8576109b8612514565b90600052602060002090600a020160050154600b8b815481106109dd576109dd612514565b90600052602060002090600a020160060154600b8c81548110610a0257610a02612514565b90600052602060002090600a020160070154600b8d81548110610a2757610a27612514565b90600052602060002090600a020160080154600b8e81548110610a4c57610a4c612514565b90600052602060002090600a0201600901549650965096509650965096509650919395979092949650565b60006103bf600b8381548110610a8f57610a8f612514565b90600052602060002090600a020160090154610ff2565b6060600180546103d4906124df565b6001600160a01b038216331415610b0e5760405162461bcd60e51b815260206004820152601960248201527f4552433732313a20617070726f766520746f2063616c6c65720000000000000060448201526064016104cc565b3360008181526005602090815260408083206001600160a01b03871680855290835292819020805460ff191686151590811790915590519081529192917f17307eab39ab6107e8899845ad3d59bd9653f200f220920489ca2b5937696c31910160405180910390a35050565b610b843383610d5b565b610ba05760405162461bcd60e51b81526004016104cc90612558565b610bac8484848461104b565b50505050565b60606000610bbf8361107e565b9392505050565b600b8181548110610bd657600080fd5b90600052602060002090600a0201600091509050806000018054610bf9906124df565b80601f0160208091040260200160405190810160405280929190818152602001828054610c25906124df565b8015610c725780601f10610c4757610100808354040283529160200191610c72565b820191906000526020600020905b815481529060010190602001808311610c5557829003601f168201915b50505050600183015460028401546003850154600486015460058701546006880154600789015460088a01546009909a01549899969895975063ffffffff85169661ffff6401000000008704811697660100000000000090970416958c565b6000610cdc82611216565b9050610ce9828233611253565b5050565b600081815260046020526040902080546001600160a01b0319166001600160a01b0384169081179091558190610d2282610852565b6001600160a01b03167f8c5be1e5ebec7d5bd14f71427d1e84f3dd0314c0f7b2291e5b200ac8c7c3b92560405160405180910390a45050565b6000818152600260205260408120546001600160a01b0316610dd45760405162461bcd60e51b815260206004820152602c60248201527f4552433732313a206f70657261746f7220717565727920666f72206e6f6e657860448201526b34b9ba32b73a103a37b5b2b760a11b60648201526084016104cc565b6000610ddf83610852565b9050806001600160a01b0316846001600160a01b03161480610e1a5750836001600160a01b0316610e0f84610457565b6001600160a01b0316145b80610e4a57506001600160a01b0380821660009081526005602090815260408083209388168352929052205460ff165b949350505050565b826001600160a01b0316610e6582610852565b6001600160a01b031614610ecd5760405162461bcd60e51b815260206004820152602960248201527f4552433732313a207472616e73666572206f6620746f6b656e2074686174206960448201526839903737ba1037bbb760b91b60648201526084016104cc565b6001600160a01b038216610f2f5760405162461bcd60e51b8152602060048201526024808201527f4552433732313a207472616e7366657220746f20746865207a65726f206164646044820152637265737360e01b60648201526084016104cc565b610f3a600082610ced565b6001600160a01b0383166000908152600360205260408120805460019290610f639084906125a9565b90915550506001600160a01b0382166000908152600360205260408120805460019290610f91908490612540565b909155505060008181526002602052604080822080546001600160a01b0319166001600160a01b0386811691821790925591518493918716917fddf252ad1be2c89b69c2b068fc378daa952ba7f163c4a11628f55a4df523b3ef91a4505050565b6000806002611002846001612540565b61100c91906125d6565b90508291505b818110156110455790508060028161102a81866125d6565b6110349190612540565b61103e91906125d6565b9050611012565b50919050565b611056848484610e52565b61106284848484611500565b610bac5760405162461bcd60e51b81526004016104cc906125ea565b606061108861200c565b6110b5600b848154811061109e5761109e612514565b90600052602060002090600a0201600401546115fe565b8152600b80546110e79190859081106110d0576110d0612514565b90600052602060002090600a020160050154611732565b6020820152600b805461111c91908590811061110557611105612514565b90600052602060002090600a0201600601546118ac565b6040820152600b805461115191908590811061113a5761113a612514565b90600052602060002090600a0201600701546119b2565b6060820152600b805461118691908590811061116f5761116f612514565b90600052602060002090600a020160080154611a81565b816004602002018190525060006040518060800160405280605c8152602001612ac1605c913960408051808201825260068152651e17b9bb339f60d11b60208083019190915285518682015187850151606089015160808a0151965197985094966111fd968996949593949293909189910161263c565b6040516020818303038152906040529350505050919050565b6000808260405160200161122a91906121a9565b6040516020818303038152906040528051906020012060001c905060095481610bbf91906126ce565b600061125e60065490565b9050600061126d6005856126ce565b90506000606461127f612710876126ce565b61128991906125d6565b9050600061271061129d620f4240886126ce565b6112a791906125d6565b90506000620f42406112bd6305f5e100896126ce565b6112c791906125d6565b905060006305f5e1006112df6402540be4008a6126ce565b6112e991906125d6565b905060006402540be40061130264e8d4a510008b6126ce565b61130c91906125d6565b90506000600b6040518061018001604052808d81526020018c8152602001898152602001600a544261133e9190612540565b63ffffffff1681526000602080830182905260408301829052606083018b9052608083018a905260a0830189905260c0830188905260e083018790526101009092018590528354600181018555938152819020825180519394600a02909101926113ab9284920190612033565b50602082810151600183015560408084015160028401556060840151600384018054608087015160a088015163ffffffff90941665ffffffffffff199092169190911764010000000061ffff928316021767ffff00000000000019166601000000000000919093160291909117905560c0840151600484015560e084015160058401556101008401516006840155610120840151600784015561014084015160088401556101609093015160099092019190915560008a8152600c825282812080546001600160a01b0319166001600160a01b038e169081179091558152600e90915290812080549161149d836126e2565b91905055506114ac8989611b50565b6114ba600680546001019055565b60408051898152602081018c90527f3045fac2aa90b666e53421f7c8b2245fae88d8c0bc2a2b62ff6283daea24f36f910160405180910390a15050505050505050505050565b60006001600160a01b0384163b156115f357604051630a85bd0160e11b81526001600160a01b0385169063150b7a02906115449033908990889088906004016126fd565b6020604051808303816000875af192505050801561157f575060408051601f3d908101601f1916820190925261157c9181019061273a565b60015b6115d9573d8080156115ad576040519150601f19603f3d011682016040523d82523d6000602084013e6115b2565b606091505b5080516115d15760405162461bcd60e51b81526004016104cc906125ea565b805181602001fd5b6001600160e01b031916630a85bd0160e11b149050610e4a565b506001949350505050565b60606116086120b7565b600061161384611b6a565b9050600061162085611c79565b604080518082018252600e81526d1e3830ba341039ba3937b5b29e9160911b6020808301919091529086528581018590528151610100810190925260c68083529293509091906128989083013960408481019190915280518082018252600e81526d1e3830ba341039ba3937b5b29e9160911b6020808301919091526060808701929092526080860184905282518084018452601e81527f2220643d224d3139203068314d3230203168324d32322032683122202f3e00008183015260a0870152825191820190925260258082529091612a9c9083013960c084018190528351602080860151604080880151606089015160808a015160a08b015193516111fd9895969395929491939192910161263c565b606061173c6120d1565b600061174784611d88565b9050600061175485611b6a565b9050600061176186611c79565b604080518082018252600e8082526d1e3830ba341039ba3937b5b29e9160911b60208084018290529289528883018590528351808501855260158152741110321e9126991019341ba69c1019b4191110179f60591b81850152898501528351808501855291825281830152606088015260808701859052815160e0810190925260b5808352929350909190612b1d9083013960a085015260408051808201909152600e81526d1e3830ba341039ba3937b5b29e9160911b602082015284600660200201528284600760200201819052506040518060a00160405280606481526020016129fe606491396101008501819052845160208087015160408089015160608a015160808b015160a08c015160c08d015160e08e015195516118929a9798959794969395929491939201612757565b604051602081830303815290604052945050505050919050565b60606118b66120ec565b60006118c184611b6a565b905060006118ce85611c79565b604080518082018252600e81526d1e3830ba341039ba3937b5b29e9160911b6020808301919091529086528581018590528151608081019092526041808352929350909190612c54908301396040808501919091528051808201909152600e81526d1e3830ba341039ba3937b5b29e9160911b60208201528360036020020152808360046020020181905250604051806080016040528060418152602001612bd2604191398360055b602090810291909101919091528351848201516040808701516060880151608089015160a08a015193516111fd979394929391929101612818565b60606119bc6120ec565b60006119c784611b6a565b905060006119d485611c79565b604080518082018252600e81526d1e3830ba341039ba3937b5b29e9160911b602080830191909152908652858101859052815160808101909252605f80835292935090919061299f908301396040808501919091528051808201909152600e81526d1e3830ba341039ba3937b5b29e9160911b6020820152836003602002015280836004602002018190525060405180608001604052806041815260200161295e60419139836005611977565b6060611a8b6120ec565b6000611a9684611b6a565b90506000611aa385611c79565b604080518082018252600e81526d1e3830ba341039ba3937b5b29e9160911b602080830191909152908652858101839052815160608101909252603a808352929350909190612a62908301396040808501919091528051808201909152600e81526d1e3830ba341039ba3937b5b29e9160911b60208201528360036020020152818360046020020181905250604051806080016040528060418152602001612c1360419139836005611977565b610ce9828260405180602001604052806000815250611e97565b604080516020810190915260008152606090611b876005846126ce565b611baf57506040805180820190915260078152660234646443730360cc1b60208201526103bf565b611bba6005846126ce565b60011415611be65750604080518082019091526007815266119a1a1c9b1a9960c91b60208201526103bf565b611bf16005846126ce565b60021415611c1d57506040805180820190915260078152662330304134444160c81b60208201526103bf565b611c286005846126ce565b60031415611c5457506040805180820190915260078152660234333303030360cc1b60208201526103bf565b506040805180820190915260078152662344323639314560c81b602082015292915050565b604080516020810190915260008152606090611c966005846126ce565b611cbe57506040805180820190915260078152660234441413532360cc1b60208201526103bf565b611cc96005846126ce565b60011415611cf55750604080518082019091526007815266119a211b9c9b2160c91b60208201526103bf565b611d006005846126ce565b60021415611d2c575060408051808201909152600781526608cc0c0e1050cd60ca1b60208201526103bf565b611d376005846126ce565b60031415611d6357506040805180820190915260078152662341353241324160c81b60208201526103bf565b5060408051808201909152600781526608d04c0d4c8c9160ca1b602082015292915050565b604080516020810190915260008152606090611da56005846126ce565b611dcd57506040805180820190915260078152662346464638444360c81b60208201526103bf565b611dd86005846126ce565b60011415611e0457506040805180820190915260078152662341304341413760c81b60208201526103bf565b611e0f6005846126ce565b60021415611e3b57506040805180820190915260078152662338454431453960c81b60208201526103bf565b611e466005846126ce565b60031415611e7257506040805180820190915260078152660234630383038360cc1b60208201526103bf565b5060408051808201909152600781526608d191914d10cd60ca1b602082015292915050565b611ea18383611eca565b611eae6000848484611500565b6106025760405162461bcd60e51b81526004016104cc906125ea565b6001600160a01b038216611f205760405162461bcd60e51b815260206004820181905260248201527f4552433732313a206d696e7420746f20746865207a65726f206164647265737360448201526064016104cc565b6000818152600260205260409020546001600160a01b031615611f855760405162461bcd60e51b815260206004820152601c60248201527f4552433732313a20746f6b656e20616c7265616479206d696e7465640000000060448201526064016104cc565b6001600160a01b0382166000908152600360205260408120805460019290611fae908490612540565b909155505060008181526002602052604080822080546001600160a01b0319166001600160a01b03861690811790915590518392907fddf252ad1be2c89b69c2b068fc378daa952ba7f163c4a11628f55a4df523b3ef908290a45050565b6040518060a001604052806005905b606081526020019060019003908161201b5790505090565b82805461203f906124df565b90600052602060002090601f01602090048101928261206157600085556120a7565b82601f1061207a57805160ff19168380011785556120a7565b828001600101855582156120a7579182015b828111156120a757825182559160200191906001019061208c565b506120b3929150612106565b5090565b6040805160e081019091526060815260066020820161201b565b6040805161012081019091526060815260086020820161201b565b6040805160c081019091526060815260056020820161201b565b5b808211156120b35760008155600101612107565b6001600160e01b03198116811461213157600080fd5b50565b60006020828403121561214657600080fd5b8135610bbf8161211b565b60005b8381101561216c578181015183820152602001612154565b83811115610bac5750506000910152565b60008151808452612195816020860160208601612151565b601f01601f19169290920160200192915050565b602081526000610bbf602083018461217d565b6000602082840312156121ce57600080fd5b5035919050565b80356001600160a01b03811681146121ec57600080fd5b919050565b6000806040838503121561220457600080fd5b61220d836121d5565b946020939093013593505050565b60a08152600061222e60a083018861217d565b90508560208301528460408301528360608301528260808301529695505050505050565b60008060006060848603121561226757600080fd5b612270846121d5565b925061227e602085016121d5565b9150604084013590509250925092565b6000602082840312156122a057600080fd5b610bbf826121d5565b600080604083850312156122bc57600080fd5b6122c5836121d5565b9150602083013580151581146122da57600080fd5b809150509250929050565b634e487b7160e01b600052604160045260246000fd5b600067ffffffffffffffff80841115612316576123166122e5565b604051601f8501601f19908116603f0116810190828211818310171561233e5761233e6122e5565b8160405280935085815286868601111561235757600080fd5b858560208301376000602087830101525050509392505050565b6000806000806080858703121561238757600080fd5b612390856121d5565b935061239e602086016121d5565b925060408501359150606085013567ffffffffffffffff8111156123c157600080fd5b8501601f810187136123d257600080fd5b6123e1878235602084016122fb565b91505092959194509250565b6101808152600061240261018083018f61217d565b602083019d909d5250604081019a909a5263ffffffff9890981660608a015261ffff96871660808a01529490951660a088015260c087019290925260e086015261010085015261012084019190915261014083015261016090910152919050565b6000806040838503121561247657600080fd5b61247f836121d5565b915061248d602084016121d5565b90509250929050565b6000602082840312156124a857600080fd5b813567ffffffffffffffff8111156124bf57600080fd5b8201601f810184136124d057600080fd5b610e4a848235602084016122fb565b600181811c908216806124f357607f821691505b6020821081141561104557634e487b7160e01b600052602260045260246000fd5b634e487b7160e01b600052603260045260246000fd5b634e487b7160e01b600052601160045260246000fd5b600082198211156125535761255361252a565b500190565b60208082526031908201527f4552433732313a207472616e736665722063616c6c6572206973206e6f74206f6040820152701ddb995c881b9bdc88185c1c1c9bdd9959607a1b606082015260800190565b6000828210156125bb576125bb61252a565b500390565b634e487b7160e01b600052601260045260246000fd5b6000826125e5576125e56125c0565b500490565b60208082526032908201527f4552433732313a207472616e7366657220746f206e6f6e20455243373231526560408201527131b2b4bb32b91034b6b83632b6b2b73a32b960711b606082015260800190565b60008851602061264f8285838e01612151565b8951918401916126628184848e01612151565b89519201916126748184848d01612151565b88519201916126868184848c01612151565b87519201916126988184848b01612151565b86519201916126aa8184848a01612151565b85519201916126bc8184848901612151565b919091019a9950505050505050505050565b6000826126dd576126dd6125c0565b500690565b60006000198214156126f6576126f661252a565b5060010190565b6001600160a01b03858116825284166020820152604081018390526080606082018190526000906127309083018461217d565b9695505050505050565b60006020828403121561274c57600080fd5b8151610bbf8161211b565b60008a51612769818460208f01612151565b8a5161277b8183860160208f01612151565b8a519184010190612790818360208e01612151565b89516127a28183850160208e01612151565b89519290910101906127b8818360208c01612151565b87516127ca8183850160208c01612151565b87519290910101906127e0818360208a01612151565b85516127f28183850160208a01612151565b8551929091010190612808818360208801612151565b019b9a5050505050505050505050565b60008751602061282b8285838d01612151565b88519184019161283e8184848d01612151565b88519201916128508184848c01612151565b87519201916128628184848b01612151565b86519201916128748184848a01612151565b85519201916128868184848901612151565b91909101999850505050505050505056fe2220643d224d3137203068314d3138203168324d3139203268334d3230203368334d3139203468354d3138203568344d3233203568324d3138203668384d3137203768394d3137203868344d3137203968344d313820313068344d313820313168364d313920313268364d313920313368374d313920313468374d313920313568384d323120313668364d323120313768364d323120313868364d323120313968364d323120323068364d323120323168354d323120323268354d3231203233683522202f3e2220643d224d313320323468324d313220323568324d313120323668324d313020323768324d313020323868324d313120323968324d3132203330683222202f3e2220643d224d313220313968334d3920323068364d3920323168364d3920323268364d3920323368364d3920323468344d3820323568344d3820323668334d3820323768324d3820323868324d3920323968324d3130203330683222202f3e2220643d224d32203468354d33203568384d34203668384d35203768374d3131203868324d36203968344d3720313068354d3820313168364d313320313268314d313020313368324d313120313468324d313220313568354d3135203136683322202f3e2220643d224d3420313368324d3320313468314d3220313568314d3220313668314d3320313768314d3320313868314d34203139683122202f3e3c70617468207374726f6b653d22236666666666652220643d224d32322035683122202f3e3c73766720786d6c6e733d22687474703a2f2f7777772e77332e6f72672f323030302f737667222076696577426f783d2230202d302e35203332203332222073686170652d72656e646572696e673d2263726973704564676573223e2220643d224d31203368374d37203468354d3131203568324d3132203668314d3132203768324d35203868364d3133203868314d3130203968354d313220313068334d313420313168314d3820313268354d313420313268324d313220313368354d313320313468384d313720313568344d313820313668334d313620313768354d313520313868364d313520313968364d313520323068364d313520323168364d313520323268364d3135203233683622202f3e2220643d224d323320323468324d323320323568324d323320323668324d323320323768324d323320323868324d323420323968324d3235203330683222202f3e2220643d224d3420313468314d3320313568314d3320313668324d3420313768314d3420313868324d3520313968344d3520323068344d37203231683222202f3e2220643d224d323120323468324d323120323568324d323120323668324d323120323768324d323120323868324d323120323968334d3231203330683422202f3ea264697066735822122078c4af1cd46ca9413a27b0324891812788130299b2788c337f9826de120be4b964736f6c634300080a0033",
  "linkReferences": {},
  "deployedLinkReferences": {}
}