{
  "_format": "hh-sol-artifact-1",
  "contractName": "DragonStandard",
  "sourceName": "contracts/DragonOutward.sol",
  "abi": [
    {
      "inputs": [
        {
          "internalType": "string",
          "name": "a",
          "type": "string"
        },
        {
          "internalType": "string",
          "name": "b",
          "type": "string"
        }
      ],
      "name": "compareStrings",
      "outputs": [
        {
          "internalType": "bool",
          "name": "",
          "type": "bool"
        }
      ],
      "stateMutability": "pure",
      "type": "function"
    }
  ],
  "bytecode": "0x61023261003a600b82828239805160001a60731461002d57634e487b7160e01b600052600060045260246000fd5b30600052607381538281f3fe73000000000000000000000000000000000000000030146080604052600436106100355760003560e01c8063bed34bba1461003a575b600080fd5b61004d61004836600461015d565b610061565b604051901515815260200160405180910390f35b60008160405160200161007491906101c1565b604051602081830303815290604052805190602001208360405160200161009b91906101c1565b6040516020818303038152906040528051906020012014905092915050565b634e487b7160e01b600052604160045260246000fd5b600082601f8301126100e157600080fd5b813567ffffffffffffffff808211156100fc576100fc6100ba565b604051601f8301601f19908116603f01168101908282118183101715610124576101246100ba565b8160405283815286602085880101111561013d57600080fd5b836020870160208301376000602085830101528094505050505092915050565b6000806040838503121561017057600080fd5b823567ffffffffffffffff8082111561018857600080fd5b610194868387016100d0565b935060208501359150808211156101aa57600080fd5b506101b7858286016100d0565b9150509250929050565b6000825160005b818110156101e257602081860181015185830152016101c8565b818111156101f1576000828501525b50919091019291505056fea2646970667358221220424148db009551c6e2a208b35e2ef21455162ea02939cc15c9c19f72d32dcbfe64736f6c634300080a0033",
  "linkReferences": {},
  "deployedLinkReferences": {}
}