{
  "_format": "hh-sol-artifact-1",
  "contractName": "DragonAffinity",
  "sourceName": "contracts/DragonBattle.sol",
  "abi": [
    {
      "inputs": [
        {
          "internalType": "uint256",
          "name": "attackAffinity",
          "type": "uint256"
        },
        {
          "internalType": "uint256",
          "name": "defenseAffinity",
          "type": "uint256"
        }
      ],
      "name": "generation",
      "outputs": [
        {
          "internalType": "bool",
          "name": "",
          "type": "bool"
        }
      ],
      "stateMutability": "pure",
      "type": "function"
    },
    {
      "inputs": [
        {
          "internalType": "uint256",
          "name": "attackAffinity",
          "type": "uint256"
        },
        {
          "internalType": "uint256",
          "name": "defenseAffinity",
          "type": "uint256"
        }
      ],
      "name": "restraint",
      "outputs": [
        {
          "internalType": "bool",
          "name": "",
          "type": "bool"
        }
      ],
      "stateMutability": "pure",
      "type": "function"
    }
  ],
  "bytecode": "0x6101fc61003a600b82828239805160001a60731461002d57634e487b7160e01b600052600060045260246000fd5b30600052607381538281f3fe73000000000000000000000000000000000000000030146080604052600436106100405760003560e01c80630afa8f1614610045578063e4f43c051461006c575b600080fd5b6100586100533660046101a4565b61007f565b604051901515815260200160405180910390f35b61005861007a3660046101a4565b610118565b60008215801561008f5750816002145b1561009c57506001610112565b8260021480156100ac5750816001145b156100b957506001610112565b8260011480156100c95750816003145b156100d657506001610112565b8260031480156100e65750816004145b156100f357506001610112565b826004148015610101575081155b1561010e57506001610112565b5060005b92915050565b6000821580156101285750816001145b1561013557506001610112565b8260011480156101455750816004145b1561015257506001610112565b8260041480156101625750816002145b1561016f57506001610112565b82600214801561017f5750816003145b1561018c57506001610112565b82600314801561010157508161010e57506001610112565b600080604083850312156101b757600080fd5b5050803592602090910135915056fea26469706673582212203d26861b39a8ef3dc3beade7d0ea2bad3e2abae147a58674cdd43e052f27a10e64736f6c634300080a0033",
  "linkReferences": {},
  "deployedLinkReferences": {}
}