{
  "_format": "hh-sol-artifact-1",
  "contractName": "FiveElementalDragon",
  "sourceName": "contracts/Dragon.sol",
  "abi": [
    {
      "inputs": [
        {
          "internalType": "address",
          "name": "marketplaceAddress",
          "type": "address"
        }
      ],
      "stateMutability": "nonpayable",
      "type": "constructor"
    },
    {
      "anonymous": false,
      "inputs": [
        {
          "indexed": true,
          "internalType": "address",
          "name": "owner",
          "type": "address"
        },
        {
          "indexed": true,
          "internalType": "address",
          "name": "approved",
          "type": "address"
        },
        {
          "indexed": true,
          "internalType": "uint256",
          "name": "tokenId",
          "type": "uint256"
        }
      ],
      "name": "Approval",
      "type": "event"
    },
    {
      "anonymous": false,
      "inputs": [
        {
          "indexed": true,
          "internalType": "address",
          "name": "owner",
          "type": "address"
        },
        {
          "indexed": true,
          "internalType": "address",
          "name": "operator",
          "type": "address"
        },
        {
          "indexed": false,
          "internalType": "bool",
          "name": "approved",
          "type": "bool"
        }
      ],
      "name": "ApprovalForAll",
      "type": "event"
    },
    {
      "anonymous": false,
      "inputs": [
        {
          "indexed": false,
          "internalType": "uint256",
          "name": "my",
          "type": "uint256"
        },
        {
          "indexed": false,
          "internalType": "uint256",
          "name": "target",
          "type": "uint256"
        },
        {
          "indexed": false,
          "internalType": "bool",
          "name": "firstAttack",
          "type": "bool"
        },
        {
          "indexed": false,
          "internalType": "uint256",
          "name": "winner",
          "type": "uint256"
        },
        {
          "indexed": false,
          "internalType": "uint256",
          "name": "loser",
          "type": "uint256"
        },
        {
          "indexed": false,
          "internalType": "uint256[]",
          "name": "damage",
          "type": "uint256[]"
        }
      ],
      "name": "DragonBattleResult",
      "type": "event"
    },
    {
      "anonymous": false,
      "inputs": [
        {
          "indexed": false,
          "internalType": "uint256",
          "name": "dragonId",
          "type": "uint256"
        },
        {
          "indexed": false,
          "internalType": "uint256",
          "name": "dna",
          "type": "uint256"
        }
      ],
      "name": "NewDragon",
      "type": "event"
    },
    {
      "anonymous": false,
      "inputs": [
        {
          "indexed": true,
          "internalType": "address",
          "name": "from",
          "type": "address"
        },
        {
          "indexed": true,
          "internalType": "address",
          "name": "to",
          "type": "address"
        },
        {
          "indexed": true,
          "internalType": "uint256",
          "name": "tokenId",
          "type": "uint256"
        }
      ],
      "name": "Transfer",
      "type": "event"
    },
    {
      "inputs": [],
      "name": "_tokenIds",
      "outputs": [
        {
          "internalType": "uint256",
          "name": "_value",
          "type": "uint256"
        }
      ],
      "stateMutability": "view",
      "type": "function"
    },
    {
      "inputs": [
        {
          "internalType": "address",
          "name": "_to",
          "type": "address"
        },
        {
          "internalType": "uint256",
          "name": "_tokenId",
          "type": "uint256"
        }
      ],
      "name": "approve",
      "outputs": [],
      "stateMutability": "nonpayable",
      "type": "function"
    },
    {
      "inputs": [
        {
          "internalType": "address",
          "name": "_owner",
          "type": "address"
        }
      ],
      "name": "balanceOf",
      "outputs": [
        {
          "internalType": "uint256",
          "name": "_balance",
          "type": "uint256"
        }
      ],
      "stateMutability": "view",
      "type": "function"
    },
    {
      "inputs": [
        {
          "internalType": "uint256",
          "name": "_dragonId",
          "type": "uint256"
        },
        {
          "internalType": "uint256",
          "name": "_targetId",
          "type": "uint256"
        }
      ],
      "name": "battle",
      "outputs": [
        {
          "internalType": "uint256[]",
          "name": "",
          "type": "uint256[]"
        }
      ],
      "stateMutability": "nonpayable",
      "type": "function"
    },
    {
      "inputs": [
        {
          "internalType": "uint256",
          "name": "_dragonId",
          "type": "uint256"
        },
        {
          "internalType": "uint256",
          "name": "_targetId",
          "type": "uint256"
        }
      ],
      "name": "battleTest",
      "outputs": [
        {
          "internalType": "uint256[]",
          "name": "",
          "type": "uint256[]"
        }
      ],
      "stateMutability": "view",
      "type": "function"
    },
    {
      "inputs": [
        {
          "internalType": "uint256",
          "name": "_dragonId",
          "type": "uint256"
        },
        {
          "internalType": "uint16",
          "name": "_newRace",
          "type": "uint16"
        }
      ],
      "name": "changeRace",
      "outputs": [],
      "stateMutability": "nonpayable",
      "type": "function"
    },
    {
      "inputs": [
        {
          "internalType": "string",
          "name": "a",
          "type": "string"
        },
        {
          "internalType": "string",
          "name": "b",
          "type": "string"
        }
      ],
      "name": "compareStrings",
      "outputs": [
        {
          "internalType": "bool",
          "name": "",
          "type": "bool"
        }
      ],
      "stateMutability": "pure",
      "type": "function"
    },
    {
      "inputs": [
        {
          "internalType": "string",
          "name": "_name",
          "type": "string"
        }
      ],
      "name": "createRandomDragon",
      "outputs": [],
      "stateMutability": "nonpayable",
      "type": "function"
    },
    {
      "inputs": [
        {
          "internalType": "uint256",
          "name": "_dragonId",
          "type": "uint256"
        },
        {
          "internalType": "uint256",
          "name": "_targetId",
          "type": "uint256"
        }
      ],
      "name": "damage",
      "outputs": [
        {
          "internalType": "uint256",
          "name": "",
          "type": "uint256"
        }
      ],
      "stateMutability": "view",
      "type": "function"
    },
    {
      "inputs": [
        {
          "internalType": "uint256",
          "name": "",
          "type": "uint256"
        }
      ],
      "name": "dragonToOwner",
      "outputs": [
        {
          "internalType": "address",
          "name": "",
          "type": "address"
        }
      ],
      "stateMutability": "view",
      "type": "function"
    },
    {
      "inputs": [
        {
          "internalType": "uint256",
          "name": "",
          "type": "uint256"
        }
      ],
      "name": "dragons",
      "outputs": [
        {
          "internalType": "string",
          "name": "name",
          "type": "string"
        },
        {
          "internalType": "uint16",
          "name": "race",
          "type": "uint16"
        },
        {
          "internalType": "uint256",
          "name": "affinity",
          "type": "uint256"
        },
        {
          "internalType": "uint32",
          "name": "readyTime",
          "type": "uint32"
        },
        {
          "internalType": "uint16",
          "name": "winCount",
          "type": "uint16"
        },
        {
          "internalType": "uint16",
          "name": "lossCount",
          "type": "uint16"
        },
        {
          "internalType": "uint256",
          "name": "head",
          "type": "uint256"
        },
        {
          "internalType": "uint256",
          "name": "wing",
          "type": "uint256"
        },
        {
          "internalType": "uint256",
          "name": "claw",
          "type": "uint256"
        },
        {
          "internalType": "uint256",
          "name": "legs",
          "type": "uint256"
        },
        {
          "internalType": "uint256",
          "name": "tail",
          "type": "uint256"
        },
        {
          "internalType": "uint256",
          "name": "experience",
          "type": "uint256"
        }
      ],
      "stateMutability": "view",
      "type": "function"
    },
    {
      "inputs": [
        {
          "internalType": "address",
          "name": "_owner",
          "type": "address"
        }
      ],
      "name": "fetchMyNFTs",
      "outputs": [
        {
          "internalType": "uint256[]",
          "name": "",
          "type": "uint256[]"
        }
      ],
      "stateMutability": "view",
      "type": "function"
    },
    {
      "inputs": [
        {
          "internalType": "uint256",
          "name": "_dragonId",
          "type": "uint256"
        },
        {
          "internalType": "uint256",
          "name": "_targetId",
          "type": "uint256"
        }
      ],
      "name": "firstAttack",
      "outputs": [
        {
          "internalType": "bool",
          "name": "",
          "type": "bool"
        }
      ],
      "stateMutability": "view",
      "type": "function"
    },
    {
      "inputs": [
        {
          "internalType": "uint256",
          "name": "tokenId",
          "type": "uint256"
        }
      ],
      "name": "getApproved",
      "outputs": [
        {
          "internalType": "address",
          "name": "",
          "type": "address"
        }
      ],
      "stateMutability": "view",
      "type": "function"
    },
    {
      "inputs": [
        {
          "internalType": "uint256",
          "name": "tokenId",
          "type": "uint256"
        }
      ],
      "name": "getDragonStats",
      "outputs": [
        {
          "internalType": "uint256",
          "name": "",
          "type": "uint256"
        },
        {
          "internalType": "uint256",
          "name": "",
          "type": "uint256"
        },
        {
          "internalType": "uint256",
          "name": "",
          "type": "uint256"
        },
        {
          "internalType": "uint256",
          "name": "",
          "type": "uint256"
        },
        {
          "internalType": "uint256",
          "name": "",
          "type": "uint256"
        },
        {
          "internalType": "uint256",
          "name": "",
          "type": "uint256"
        },
        {
          "internalType": "uint256",
          "name": "",
          "type": "uint256"
        }
      ],
      "stateMutability": "view",
      "type": "function"
    },
    {
      "inputs": [
        {
          "internalType": "uint256",
          "name": "tokenId",
          "type": "uint256"
        }
      ],
      "name": "getLevel",
      "outputs": [
        {
          "internalType": "uint256",
          "name": "",
          "type": "uint256"
        }
      ],
      "stateMutability": "view",
      "type": "function"
    },
    {
      "inputs": [],
      "name": "getNumberOfDragons",
      "outputs": [
        {
          "internalType": "uint256",
          "name": "",
          "type": "uint256"
        }
      ],
      "stateMutability": "view",
      "type": "function"
    },
    {
      "inputs": [
        {
          "internalType": "address",
          "name": "owner",
          "type": "address"
        },
        {
          "internalType": "address",
          "name": "operator",
          "type": "address"
        }
      ],
      "name": "isApprovedForAll",
      "outputs": [
        {
          "internalType": "bool",
          "name": "",
          "type": "bool"
        }
      ],
      "stateMutability": "view",
      "type": "function"
    },
    {
      "inputs": [
        {
          "internalType": "uint256",
          "name": "num",
          "type": "uint256"
        },
        {
          "internalType": "uint256",
          "name": "minus",
          "type": "uint256"
        }
      ],
      "name": "lessZero",
      "outputs": [
        {
          "internalType": "uint256",
          "name": "",
          "type": "uint256"
        }
      ],
      "stateMutability": "pure",
      "type": "function"
    },
    {
      "inputs": [],
      "name": "name",
      "outputs": [
        {
          "internalType": "string",
          "name": "",
          "type": "string"
        }
      ],
      "stateMutability": "view",
      "type": "function"
    },
    {
      "inputs": [
        {
          "internalType": "uint256",
          "name": "_tokenId",
          "type": "uint256"
        }
      ],
      "name": "ownerOf",
      "outputs": [
        {
          "internalType": "address",
          "name": "_owner",
          "type": "address"
        }
      ],
      "stateMutability": "view",
      "type": "function"
    },
    {
      "inputs": [
        {
          "internalType": "address",
          "name": "from",
          "type": "address"
        },
        {
          "internalType": "address",
          "name": "to",
          "type": "address"
        },
        {
          "internalType": "uint256",
          "name": "tokenId",
          "type": "uint256"
        }
      ],
      "name": "safeTransferFrom",
      "outputs": [],
      "stateMutability": "nonpayable",
      "type": "function"
    },
    {
      "inputs": [
        {
          "internalType": "address",
          "name": "from",
          "type": "address"
        },
        {
          "internalType": "address",
          "name": "to",
          "type": "address"
        },
        {
          "internalType": "uint256",
          "name": "tokenId",
          "type": "uint256"
        },
        {
          "internalType": "bytes",
          "name": "_data",
          "type": "bytes"
        }
      ],
      "name": "safeTransferFrom",
      "outputs": [],
      "stateMutability": "nonpayable",
      "type": "function"
    },
    {
      "inputs": [
        {
          "internalType": "address",
          "name": "operator",
          "type": "address"
        },
        {
          "internalType": "bool",
          "name": "approved",
          "type": "bool"
        }
      ],
      "name": "setApprovalForAll",
      "outputs": [],
      "stateMutability": "nonpayable",
      "type": "function"
    },
    {
      "inputs": [
        {
          "internalType": "bytes4",
          "name": "interfaceId",
          "type": "bytes4"
        }
      ],
      "name": "supportsInterface",
      "outputs": [
        {
          "internalType": "bool",
          "name": "",
          "type": "bool"
        }
      ],
      "stateMutability": "view",
      "type": "function"
    },
    {
      "inputs": [],
      "name": "symbol",
      "outputs": [
        {
          "internalType": "string",
          "name": "",
          "type": "string"
        }
      ],
      "stateMutability": "view",
      "type": "function"
    },
    {
      "inputs": [
        {
          "internalType": "uint256",
          "name": "tokenId",
          "type": "uint256"
        }
      ],
      "name": "tokenURI",
      "outputs": [
        {
          "internalType": "string",
          "name": "",
          "type": "string"
        }
      ],
      "stateMutability": "view",
      "type": "function"
    },
    {
      "inputs": [
        {
          "internalType": "address",
          "name": "_to",
          "type": "address"
        },
        {
          "internalType": "uint256",
          "name": "_tokenId",
          "type": "uint256"
        }
      ],
      "name": "transfer",
      "outputs": [],
      "stateMutability": "nonpayable",
      "type": "function"
    },
    {
      "inputs": [
        {
          "internalType": "address",
          "name": "from",
          "type": "address"
        },
        {
          "internalType": "address",
          "name": "to",
          "type": "address"
        },
        {
          "internalType": "uint256",
          "name": "tokenID",
          "type": "uint256"
        }
      ],
      "name": "transferFrom",
      "outputs": [],
      "stateMutability": "nonpayable",
      "type": "function"
    }
  ],
  "bytecode": "0x6080604052601060088190556200001890600a62000309565b6009556001600a556040805160208101918290526000908190526200004091600b916200014e565b5060408051808201909152600e8082526d1e3830ba341039ba3937b5b29e9160911b60209092019182526200007891600c916200014e565b5060646012553480156200008b57600080fd5b5060405162004ef638038062004ef6833981016040819052620000ae916200031e565b604080518082018252601581527f4669766520456c656d656e74616c20447261676f6e000000000000000000000060208083019182528351808501909452600384526211915160ea1b9084015281519192916200010e916000916200014e565b508051620001249060019060208401906200014e565b5050600780546001600160a01b0319166001600160a01b0393909316929092179091555062000386565b8280546200015c9062000349565b90600052602060002090601f016020900481019282620001805760008555620001cb565b82601f106200019b57805160ff1916838001178555620001cb565b82800160010185558215620001cb579182015b82811115620001cb578251825591602001919060010190620001ae565b50620001d9929150620001dd565b5090565b5b80821115620001d95760008155600101620001de565b634e487b7160e01b600052601160045260246000fd5b600181815b808511156200024b5781600019048211156200022f576200022f620001f4565b808516156200023d57918102915b93841c93908002906200020f565b509250929050565b600082620002645750600162000303565b81620002735750600062000303565b81600181146200028c57600281146200029757620002b7565b600191505062000303565b60ff841115620002ab57620002ab620001f4565b50506001821b62000303565b5060208310610133831016604e8410600b8410161715620002dc575081810a62000303565b620002e883836200020a565b8060001904821115620002ff57620002ff620001f4565b0290505b92915050565b600062000317838362000253565b9392505050565b6000602082840312156200033157600080fd5b81516001600160a01b03811681146200031757600080fd5b600181811c908216806200035e57607f821691505b602082108114156200038057634e487b7160e01b600052602260045260246000fd5b50919050565b614b6080620003966000396000f3fe608060405234801561001057600080fd5b50600436106101cf5760003560e01c80637b3b0a2f11610104578063b88d4fde116100a2578063d2a59d6911610071578063d2a59d6914610453578063e985e9c51461047e578063f3fc7b24146104ba578063fdccc83e146104cd57600080fd5b8063b88d4fde14610412578063bed34bba14610425578063c0b70cfb14610438578063c87b56dd1461044057600080fd5b806395d89b41116100de57806395d89b41146103da578063a22cb465146103e2578063a9059cbb146103f5578063aa46a4001461040857600080fd5b80637b3b0a2f1461038b57806386481d40146103b45780639565189f146103c757600080fd5b806325e2b0d41161017157806345c553a41161014b57806345c553a4146102de5780636352211e146102f157806370a082311461031a5780637a00a6491461034357600080fd5b806325e2b0d4146102975780632a0c5221146102b857806342842e0e146102cb57600080fd5b8063095ea7b3116101ad578063095ea7b31461023c57806310afee1e146102515780631d70702b1461027157806323b872dd1461028457600080fd5b806301ffc9a7146101d457806306fdde03146101fc578063081812fc14610211575b600080fd5b6101e76101e23660046137dd565b6104e0565b60405190151581526020015b60405180910390f35b610204610532565b6040516101f39190613852565b61022461021f366004613865565b6105c4565b6040516001600160a01b0390911681526020016101f3565b61024f61024a36600461389a565b61065e565b005b61026461025f3660046138c4565b6106dd565b6040516101f3919061391a565b61024f61027f36600461392d565b6107b5565b61024f610292366004613964565b61081e565b6102aa6102a53660046139a0565b61082e565b6040519081526020016101f3565b6102646102c63660046139a0565b610850565b61024f6102d9366004613964565b610bc7565b6102646102ec3660046139a0565b610be2565b6102246102ff366004613865565b6000908152600e60205260409020546001600160a01b031690565b6102aa6103283660046138c4565b6001600160a01b031660009081526010602052604090205490565b610356610351366004613865565b610d6f565b604080519788526020880196909652948601939093526060850191909152608084015260a083015260c082015260e0016101f3565b610224610399366004613865565b600e602052600090815260409020546001600160a01b031681565b6102aa6103c2366004613865565b610e96565b6101e76103d53660046139a0565b610ec5565b610204611027565b61024f6103f03660046139d0565b611036565b61024f61040336600461389a565b6110fb565b6006546102aa9081565b61024f610420366004613a88565b61112b565b6101e7610433366004613b24565b6111ad565b600d546102aa565b61020461044e366004613865565b611206565b610466610461366004613865565b611240565b6040516101f39c9b9a99989796959493929190613b88565b6101e761048c366004613c02565b6001600160a01b03918216600090815260056020908152604080832093909416825291909152205460ff1690565b6102aa6104c83660046139a0565b61134a565b61024f6104db366004613c35565b611518565b60006001600160e01b031982166380ac58cd60e01b148061051157506001600160e01b03198216635b5e139f60e01b145b8061052c57506301ffc9a760e01b6001600160e01b03198316145b92915050565b60606000805461054190613c6a565b80601f016020809104026020016040519081016040528092919081815260200182805461056d90613c6a565b80156105ba5780601f1061058f576101008083540402835291602001916105ba565b820191906000526020600020905b81548152906001019060200180831161059d57829003601f168201915b5050505050905090565b6000818152600260205260408120546001600160a01b03166106425760405162461bcd60e51b815260206004820152602c60248201527f4552433732313a20617070726f76656420717565727920666f72206e6f6e657860448201526b34b9ba32b73a103a37b5b2b760a11b60648201526084015b60405180910390fd5b506000908152600460205260409020546001600160a01b031690565b6000818152600e602052604090205481906001600160a01b0316331461068357600080fd5b60008281526014602052604080822080546001600160a01b0319166001600160a01b0387169081179091559051849233917f8c5be1e5ebec7d5bd14f71427d1e84f3dd0314c0f7b2291e5b200ac8c7c3b9259190a4505050565b6001600160a01b0381166000908152601060205260408120546060919067ffffffffffffffff811115610712576107126139fc565b60405190808252806020026020018201604052801561073b578160200160208202803683370190505b5090506000805b600d548110156107ac576000818152600e60205260409020546001600160a01b038681169116141561079a578083838151811061078157610781613c9f565b60209081029190910101528161079681613ccb565b9250505b806107a481613ccb565b915050610742565b50909392505050565b6000828152600e602052604090205482906001600160a01b031633146107da57600080fd5b81600d84815481106107ee576107ee613c9f565b90600052602060002090600a020160010160006101000a81548161ffff021916908361ffff160217905550505050565b610829838383611534565b505050565b600081831161083f5750600061052c565b6108498284613ce6565b9392505050565b6060600061085e8484610ec5565b90506000600d858154811061087557610875613c9f565b90600052602060002090600a020190506000600d858154811061089a5761089a613c9f565b600091825260208220600885810154600a93840290920190810154604080518581526101608101909152919550919391928291908160200160208202803683370190505090505b6000841180156108f15750600083115b156109dd57600060018815151480156109125750610910600284613d13565b155b15610934576109218b8b61134a565b905061092d848261082e565b93506109ac565b8715801561094a5750610948600284613d13565b155b1561096c576109598a8c61134a565b9050610965858261082e565b94506109ac565b871580156109845750610980600284613d13565b6001145b15610993576109218b8b61134a565b61099d8a8c61134a565b90506109a9858261082e565b94505b808284815181106109bf576109bf613c9f565b6020908102919091010152826109d481613ccb565b935050506108e1565b60008311610b0357600386018054640100000000900461ffff16906004610a0383613d27565b91906101000a81548161ffff021916908361ffff16021790555050856009016000815480929190610a3390613ccb565b9091555050600385018054600160301b900461ffff16906006610a5583613d27565b91906101000a81548161ffff021916908361ffff160217905550506000610a7b426116c8565b905060008660000182604051602001610a95929190613d65565b6040516020818303038152906040528051906020012060001c9050610abb8c8c836117f1565b7f74a32d4e157e6074db407999918a153c7fadeacbadc1db5a595a7caff529c4af8c8c8b8f8f88604051610af496959493929190613e03565b60405180910390a15050610bba565b600386018054600160301b900461ffff16906006610b2083613d27565b91906101000a81548161ffff021916908361ffff1602179055505084600301600481819054906101000a900461ffff1680929190610b5d90613d27565b91906101000a81548161ffff021916908361ffff160217905550507f74a32d4e157e6074db407999918a153c7fadeacbadc1db5a595a7caff529c4af8a8a898c8e86604051610bb196959493929190613e03565b60405180910390a15b9998505050505050505050565b6108298383836040518060200160405280600081525061112b565b60606000610bf08484610ec5565b90506000600d8581548110610c0757610c07613c9f565b90600052602060002090600a020190506000600d8581548110610c2c57610c2c613c9f565b600091825260208220600885810154600a93840290920190810154604080518581526101608101909152919550919391928291908160200160208202803683370190505090505b600084118015610c835750600083115b15610bba5760006001881515148015610ca45750610ca2600284613d13565b155b15610cc657610cb38b8b61134a565b9050610cbf848261082e565b9350610d3e565b87158015610cdc5750610cda600284613d13565b155b15610cfe57610ceb8a8c61134a565b9050610cf7858261082e565b9450610d3e565b87158015610d165750610d12600284613d13565b6001145b15610d2557610cb38b8b61134a565b610d2f8a8c61134a565b9050610d3b858261082e565b94505b80828481518110610d5157610d51613c9f565b602090810291909101015282610d6681613ccb565b93505050610c73565b6000806000806000806000600d8881548110610d8d57610d8d613c9f565b90600052602060002090600a020160020154600d8981548110610db257610db2613c9f565b90600052602060002090600a020160040154600d8a81548110610dd757610dd7613c9f565b90600052602060002090600a020160050154600d8b81548110610dfc57610dfc613c9f565b90600052602060002090600a020160060154600d8c81548110610e2157610e21613c9f565b90600052602060002090600a020160070154600d8d81548110610e4657610e46613c9f565b90600052602060002090600a020160080154600d8e81548110610e6b57610e6b613c9f565b90600052602060002090600a0201600901549650965096509650965096509650919395979092949650565b600061052c600d8381548110610eae57610eae613c9f565b90600052602060002090600a0201600901546119e7565b600080600d8481548110610edb57610edb613c9f565b90600052602060002090600a020190506000600d8481548110610f0057610f00613c9f565b600091825260209091206001840154600a90920201915061ffff1660021415610f2e5760019250505061052c565b600181015461ffff1660021415610f4a5760009250505061052c565b600182015461ffff16610f625760019250505061052c565b600181015461ffff16610f7a5760009250505061052c565b600182015461ffff1660031415610f965760019250505061052c565b600181015461ffff1660031415610fb25760009250505061052c565b8060070154826007015410610fcc5760019250505061052c565b806007015482600701541015610fe75760009250505061052c565b80600901548260090154116110015760019250505061052c565b81600901548160090154101561101c5760009250505061052c565b60019250505061052c565b60606001805461054190613c6a565b6001600160a01b03821633141561108f5760405162461bcd60e51b815260206004820152601960248201527f4552433732313a20617070726f766520746f2063616c6c6572000000000000006044820152606401610639565b3360008181526005602090815260408083206001600160a01b03871680855290835292819020805460ff191686151590811790915590519081529192917f17307eab39ab6107e8899845ad3d59bd9653f200f220920489ca2b5937696c31910160405180910390a35050565b6000818152600e602052604090205481906001600160a01b0316331461112057600080fd5b610829338484611a40565b6111353383611a8d565b61119b5760405162461bcd60e51b815260206004820152603160248201527f4552433732313a207472616e736665722063616c6c6572206973206e6f74206f6044820152701ddb995c881b9bdc88185c1c1c9bdd9959607a1b6064820152608401610639565b6111a784848484611b84565b50505050565b6000816040516020016111c09190613e42565b60405160208183030381529060405280519060200120836040516020016111e79190613e42565b6040516020818303038152906040528051906020012014905092915050565b6060600061121383611bb7565b90506000816040516020016112289190613e5e565b60408051601f19818403018152919052949350505050565b600d818154811061125057600080fd5b90600052602060002090600a020160009150905080600001805461127390613c6a565b80601f016020809104026020016040519081016040528092919081815260200182805461129f90613c6a565b80156112ec5780601f106112c1576101008083540402835291602001916112ec565b820191906000526020600020905b8154815290600101906020018083116112cf57829003601f168201915b50505050600183015460028401546003850154600486015460058701546006880154600789015460088a01546009909a0154989961ffff9788169996985063ffffffff8616976401000000008704811697600160301b90970416958c565b600080600d848154811061136057611360613c9f565b90600052602060002090600a020190506000600d848154811061138557611385613c9f565b90600052602060002090600a02019050600073__$7a2a659537950094cf3f6b47018eefedb5$__63e4f43c05846002015484600201546040518363ffffffff1660e01b81526004016113e1929190918252602082015260400190565b602060405180830381865af41580156113fe573d6000803e3d6000fd5b505050506040513d601f19601f820116820180604052508101906114229190613ea3565b6002808501549084015460405163057d478b60e11b815292935060009273__$7a2a659537950094cf3f6b47018eefedb5$__92630afa8f169261147092600401918252602082015260400190565b602060405180830381865af415801561148d573d6000803e3d6000fd5b505050506040513d601f19601f820116820180604052508101906114b19190613ea3565b600485015460058501549192509083156114d7576114d081601461082e565b90506114eb565b82156114eb576114e8826014613ec0565b91505b85600601546114fa6064611dd2565b101561150e5761150b826002613ed8565b91505b610bba828261082e565b600061152382611e38565b9050611530828233611e84565b5050565b6000818152600e60205260409020546001600160a01b038481169116146115af5760405162461bcd60e51b815260206004820152602960248201527f4552433732313a207472616e73666572206f6620746f6b656e2074686174206960448201526839903737ba1037bbb760b91b6064820152608401610639565b6001600160a01b0382166116115760405162461bcd60e51b8152602060048201526024808201527f4552433732313a207472616e7366657220746f20746865207a65726f206164646044820152637265737360e01b6064820152608401610639565b61161a81612135565b6001600160a01b038316600090815260106020526040812080549161163e83613ef7565b90915550506001600160a01b038216600090815260106020526040812080549161166783613ccb565b90915550506000818152600e602052604080822080546001600160a01b0319166001600160a01b0386811691821790925591518493918716917fddf252ad1be2c89b69c2b068fc378daa952ba7f163c4a11628f55a4df523b3ef91a4505050565b6060816116ec5750506040805180820190915260018152600360fc1b602082015290565b8160005b8115611716578061170081613ccb565b915061170f9050600a83613f0e565b91506116f0565b60008167ffffffffffffffff811115611731576117316139fc565b6040519080825280601f01601f19166020018201604052801561175b576020820181803683370190505b509050815b85156117e857611771600182613ce6565b90506000611780600a88613f0e565b61178b90600a613ed8565b6117959088613ce6565b6117a0906030613f22565b905060008160f81b9050808484815181106117bd576117bd613c9f565b60200101906001600160f81b031916908160001a9053506117df600a89613f0e565b97505050611760565b50949350505050565b6000838152600e602052604090205483906001600160a01b0316331461181657600080fd5b6000600d858154811061182b5761182b613c9f565b90600052602060002090600a020190506000600d858154811061185057611850613c9f565b90600052602060002090600a02019050611870826001015461ffff161590565b6118c85760405162461bcd60e51b8152602060048201526024808201527f596f7520686176652067726f776e207570206e6f74206120626162792064726160448201526333b7b71760e11b6064820152608401610639565b6000846118fd578260040154600283600401546118e59190613f0e565b6118ef9190613ec0565b6004840181905590506119cc565b84600114156119345782600501546002836005015461191c9190613f0e565b6119269190613ec0565b6005840181905590506119cc565b846002141561196b578260060154600283600601546119539190613f0e565b61195d9190613ec0565b6006840181905590506119cc565b84600314156119a25782600701546002836007015461198a9190613f0e565b6119949190613ec0565b6007840181905590506119cc565b8260080154600283600801546119b89190613f0e565b6119c29190613ec0565b6008840181905590505b6119d583612172565b6119de83612212565b50505050505050565b60008060026119f7846001613ec0565b611a019190613f0e565b90508291505b81811015611a3a57905080600281611a1f8186613f0e565b611a299190613ec0565b611a339190613f0e565b9050611a07565b50919050565b6001600160a01b0382166000908152601060205260408120805491611a6483613ccb565b90915550506001600160a01b038316600090815260106020526040812080549161166783613ef7565b6000818152600260205260408120546001600160a01b0316611b065760405162461bcd60e51b815260206004820152602c60248201527f4552433732313a206f70657261746f7220717565727920666f72206e6f6e657860448201526b34b9ba32b73a103a37b5b2b760a11b6064820152608401610639565b6000611b118361223e565b9050806001600160a01b0316846001600160a01b03161480611b4c5750836001600160a01b0316611b41846105c4565b6001600160a01b0316145b80611b7c57506001600160a01b0380821660009081526005602090815260408083209388168352929052205460ff165b949350505050565b611b8f848484611a40565b611b9b848484846122b5565b6111a75760405162461bcd60e51b815260040161063990613f47565b6060611bc16136b8565b611bee600d8481548110611bd757611bd7613c9f565b90600052602060002090600a0201600201546123b3565b8152600d8054611c4b919085908110611c0957611c09613c9f565b90600052602060002090600a020160020154600d8581548110611c2e57611c2e613c9f565b600091825260209091206001600a90920201015461ffff16612500565b6020820152600d8054611cab919085908110611c6957611c69613c9f565b90600052602060002090600a020160020154600d8581548110611c8e57611c8e613c9f565b600091825260209091206001600a90920201015461ffff16612a52565b6040820152600d8054611d0b919085908110611cc957611cc9613c9f565b90600052602060002090600a020160020154600d8581548110611cee57611cee613c9f565b600091825260209091206001600a90920201015461ffff16612dc6565b6060820152600d8054611d40919085908110611d2957611d29613c9f565b90600052602060002090600a020160020154612f9d565b816004602002018190525060006040518060800160405280605c81526020016145b3605c913960408051808201825260068152651e17b9bb339f60d11b60208083019190915285518682015187850151606089015160808a015196519798509496611dc996611db5968a9690928a9101613f99565b604051602081830303815290604052613096565b95945050505050565b6000814233611de060135490565b604051602001611e159392919092835260609190911b6bffffffffffffffffffffffff19166020830152603482015260540190565b6040516020818303038152906040528051906020012060001c61052c9190613d13565b600080611e44426116c8565b905060008382604051602001611e5b92919061402b565b6040516020818303038152906040528051906020012060001c905060095481611b7c9190613d13565b6000611e8f60065490565b9050600080611e9f600586613d13565b905060006064611eb161271088613d13565b611ebb9190613f0e565b90506000612710611ecf620f424089613d13565b611ed99190613f0e565b90506000611ee8601489613d13565b905060006305f5e100611f006402540be4008b613d13565b611f0a9190613f0e565b905060006402540be400611f2364e8d4a510008c613d13565b611f2d9190613f0e565b90506000600d6040518061018001604052808e81526020018a61ffff168152602001898152602001600a5442611f639190613ec0565b63ffffffff1681526000602080830182905260408301829052606083018b9052608083018a905260a0830189905260c0830188905260e083018790526101009092018590528354600181018555938152819020825180519394600a0290910192611fd092849201906136df565b5060208281015160018301805461ffff92831661ffff1990911617905560408085015160028501556060850151600385018054608088015160a08901518616600160301b0267ffff00000000000019919096166401000000000265ffffffffffff1990921663ffffffff9094169390931717919091169290921790915560c0840151600484015560e084015160058401556101008401516006840155610120840151600784015561014084015160088401556101609093015160099092019190915560008b8152600e825282812080546001600160a01b038f166001600160a01b03199091168117909155815260109091529081208054916120d183613ccb565b91905055506120e08a8a6131fc565b6120ee600680546001019055565b604080518a8152602081018d90527f3045fac2aa90b666e53421f7c8b2245fae88d8c0bc2a2b62ff6283daea24f36f910160405180910390a1505050505050505050505050565b6000818152601460205260409020546001600160a01b03161561216f57600081815260146020526040902080546001600160a01b03191690555b50565b601254816004015410612192576001908101805461ffff19169091179055565b6012548160050154106121b25760018101805461ffff1916600217905550565b6012548160060154106121d25760018101805461ffff1916600317905550565b6012548160070154106121f25760018101805461ffff1916600417905550565b60125481600801541061216f5760018101805461ffff1916600517905550565b600a5461221f9042613ec0565b600391909101805463ffffffff191663ffffffff909216919091179055565b6000818152600260205260408120546001600160a01b03168061052c5760405162461bcd60e51b815260206004820152602960248201527f4552433732313a206f776e657220717565727920666f72206e6f6e657869737460448201526832b73a103a37b5b2b760b91b6064820152608401610639565b60006001600160a01b0384163b156123a857604051630a85bd0160e11b81526001600160a01b0385169063150b7a02906122f990339089908890889060040161405a565b6020604051808303816000875af1925050508015612334575060408051601f3d908101601f1916820190925261233191810190614097565b60015b61238e573d808015612362576040519150601f19603f3d011682016040523d82523d6000602084013e612367565b606091505b5080516123865760405162461bcd60e51b815260040161063990613f47565b805181602001fd5b6001600160e01b031916630a85bd0160e11b149050611b7c565b506001949350505050565b60606123bd613763565b60006123c884613216565b905060006123d585613325565b604080518082018252600e81526d1e3830ba341039ba3937b5b29e9160911b6020808301919091529086528581018590528151610100810190925260c68083529293509091906141f59083013960408481019190915280518082018252600e81526d1e3830ba341039ba3937b5b29e9160911b6020808301919091526060808701929092526080860184905282518084018452601e81527f2220643d224d3139203068314d3230203168324d32322032683122202f3e00008183015260a087015282519182019092526025808252909161458e9083013960c084018190528351602080860151604080880151606089015160808a015160a08b015193516124e798959693959294919391929101613f99565b6040516020818303038152906040529350505050919050565b606061250a61377d565b600061251585613434565b9050600061252286613216565b9050600061252f87613325565b90508561ffff166001141561268957604080518082018252600e8082526d1e3830ba341039ba3937b5b29e9160911b602080840182905292885287830185905283518085018552601e81527f2220643d224d3134203368314d3132203468324d31312035683122202f3e000081850152888501528351808501855291825281830152606087015260808601849052815160e0810190925260ae808352906149599083013960a085015260408051808201909152600e81526d1e3830ba341039ba3937b5b29e9160911b60208201528460066020020181905250604051806040016040528060078152602001662366666666666560c81b8152508460076009811061263b5761263b613c9f565b60200201819052506040518060400160405280601081526020016f1110321e91269898901c34189110179f60811b8152508460086009811061267f5761267f613c9f565b60200201526129f1565b8561ffff16600514156127bd57604080518082018252600e81526d1e3830ba341039ba3937b5b29e9160911b6020808301919091529086528581018490528151610160810190925261013280835290614422908301396040808601919091528051808201909152600e81526d1e3830ba341039ba3937b5b29e9160911b602082015284600360200201528284600460200201819052506040518060e0016040528060b4815260200161478a60b491398460055b6020020181905250604051806020016040528060008152508460066009811061276757612767613c9f565b6020020181905250604051806020016040528060008152508460076009811061279257612792613c9f565b6020020181905250604051806020016040528060008152508460086009811061267f5761267f613c9f565b8561ffff166003141561285157604080518082018252600e81526d1e3830ba341039ba3937b5b29e9160911b60208083019190915290865285810184905281516080810190925260598083529061467c90830139604085810191909152805160208082018352600080835260608801929092528251808201845282815260808801528251908101909252815284600561273c565b8561ffff166004141561290657604080518082018252600e81526d1e3830ba341039ba3937b5b29e9160911b602080830191909152908652858101849052815160c081019092526091808352906148c8908301396040808601919091528051808201909152600e81526d1e3830ba341039ba3937b5b29e9160911b60208201528460036020020152808460046020020181905250604051806080016040528060418152602001614aea6041913984600561273c565b604080518082018252600e8082526d1e3830ba341039ba3937b5b29e9160911b60208084018290529288528783018590528351808501855260158152741110321e9126991019341ba69c1019b4191110179f60591b81850152888501528351808501855291825281830152606087015260808601849052815160e0810190925260b5808352906146d59083013960a085015260408051808201909152600e81526d1e3830ba341039ba3937b5b29e9160911b602082015284600660200201528284600760200201819052506040518060a001604052806064815260200161435b606491396101008501525b8351602080860151604080880151606089015160808a015160a08b015160c08c015160e08d01516101008e01519651612a379a99969795969495939492939192016140b4565b60405160208183030381529060405294505050505092915050565b6060612a5c61377d565b6000612a6785613216565b90506000612a7486613325565b90508461ffff1660011415612b9e57604080518082018252600e81526d1e3830ba341039ba3937b5b29e9160911b602080830191909152908552848101849052815160a081019092526063808352906143bf9083013960408481019190915280518082018252600e8082526d1e3830ba341039ba3937b5b29e9160911b6020808401829052606088019390935260808701859052835180850185526011808252701110321e9126991b90191a34191110179f60791b8286015260a0890191909152845180860186529283528284019190915260c08701919091528251808401845260078152662366666666666560c81b8184015260e087015282518084019093528252701110321e9126991c10191bb4189110179f60791b908201528360085b6020020152612d66565b8461ffff1660031415612c8957604080518082018252600e81526d1e3830ba341039ba3937b5b29e9160911b602080830191909152908552848101849052815160808101909252604180835290614a48908301396040808501919091528051808201909152600e81526d1e3830ba341039ba3937b5b29e9160911b6020820152836003602002015280836004602002018190525060405180608001604052806041815260200161483e6041913960a08401526040805160208082018352600080835260c08701929092528251808201845282815260e087015282519081019092528152836008612b94565b604080518082018252600e81526d1e3830ba341039ba3937b5b29e9160911b602080830191909152908552848101849052815160a08101909252606180835290614a89908301396040808501919091528051808201909152600e81526d1e3830ba341039ba3937b5b29e9160911b6020820152836003602002015280836004602002018190525060405180608001604052806049815260200161487f6049913960a08401526040805160208082018352600080835260c08701929092528251808201845282815260e0870152825190810190925281526101008401525b82516020808501516040808701516060880151608089015160a08a015160c08b015160e08c01516101008d01519651612dac9a99969795969495939492939192016140b4565b604051602081830303815290604052935050505092915050565b6060612dd0613798565b6000612ddb85613216565b90506000612de886613325565b90508461ffff1660021415612e8c5760408051808201909152600e81526d1e3830ba341039ba3937b5b29e9160911b60208201528360005b60200201528183600160200201819052506040518060600160405280602d815260200161460f602d9139604084810191909152805160208082018352600080835260608701929092528251808201845282815260808701528251908101909252815260a0840152612f6c565b8461ffff1660051415612ec65760408051808201909152600e81526d1e3830ba341039ba3937b5b29e9160911b6020820152836000612e20565b604080518082018252600e81526d1e3830ba341039ba3937b5b29e9160911b602080830191909152908552848101849052815160808101909252605f808352906142fc908301396040808501919091528051808201909152600e81526d1e3830ba341039ba3937b5b29e9160911b602082015283600360200201528083600460200201819052506040518060800160405280604181526020016142bb6041913960a08401525b82516020808501516040808701516060880151608089015160a08a01519351612dac97969394929391929101614175565b6060612fa7613798565b6000612fb284613216565b90506000612fbf85613325565b604080518082018252600e81526d1e3830ba341039ba3937b5b29e9160911b602080830191909152908652858101839052815160608101909252603a808352929350909190614554908301396040808501919091528051808201909152600e81526d1e3830ba341039ba3937b5b29e9160911b60208201528360036020020152818360046020020181905250604051806080016040528060418152602001614a076041913960a084018190528351602080860151604080880151606089015160808a015192516124e7979495929491939201614175565b8051606090806130b6575050604080516020810190915260008152919050565b600060036130c5836002613ec0565b6130cf9190613f0e565b6130da906004613ed8565b905060006130e9826020613ec0565b67ffffffffffffffff811115613101576131016139fc565b6040519080825280601f01601f19166020018201604052801561312b576020820181803683370190505b509050600060405180606001604052806040815260200161463c604091399050600181016020830160005b868110156131b7576003818a01810151603f601282901c8116860151600c83901c8216870151600684901c831688015192909316870151600891821b60ff94851601821b92841692909201901b91160160e01b835260049092019101613156565b5060038606600181146131d157600281146131e2576131ee565b613d3d60f01b6001198301526131ee565b603d60f81b6000198301525b505050918152949350505050565b611530828260405180602001604052806000815250613543565b604080516020810190915260008152606090613233600584613d13565b61325b57506040805180820190915260078152660234646443730360cc1b602082015261052c565b613266600584613d13565b600114156132925750604080518082019091526007815266119a1a1c9b1a9960c91b602082015261052c565b61329d600584613d13565b600214156132c957506040805180820190915260078152662330304134444160c81b602082015261052c565b6132d4600584613d13565b6003141561330057506040805180820190915260078152660234333303030360cc1b602082015261052c565b506040805180820190915260078152662344323639314560c81b602082015292915050565b604080516020810190915260008152606090613342600584613d13565b61336a57506040805180820190915260078152660234441413532360cc1b602082015261052c565b613375600584613d13565b600114156133a15750604080518082019091526007815266119a211b9c9b2160c91b602082015261052c565b6133ac600584613d13565b600214156133d8575060408051808201909152600781526608cc0c0e1050cd60ca1b602082015261052c565b6133e3600584613d13565b6003141561340f57506040805180820190915260078152662341353241324160c81b602082015261052c565b5060408051808201909152600781526608d04c0d4c8c9160ca1b602082015292915050565b604080516020810190915260008152606090613451600584613d13565b61347957506040805180820190915260078152662346464638444360c81b602082015261052c565b613484600584613d13565b600114156134b057506040805180820190915260078152662341304341413760c81b602082015261052c565b6134bb600584613d13565b600214156134e757506040805180820190915260078152662338454431453960c81b602082015261052c565b6134f2600584613d13565b6003141561351e57506040805180820190915260078152660234630383038360cc1b602082015261052c565b5060408051808201909152600781526608d191914d10cd60ca1b602082015292915050565b61354d8383613576565b61355a60008484846122b5565b6108295760405162461bcd60e51b815260040161063990613f47565b6001600160a01b0382166135cc5760405162461bcd60e51b815260206004820181905260248201527f4552433732313a206d696e7420746f20746865207a65726f20616464726573736044820152606401610639565b6000818152600260205260409020546001600160a01b0316156136315760405162461bcd60e51b815260206004820152601c60248201527f4552433732313a20746f6b656e20616c7265616479206d696e746564000000006044820152606401610639565b6001600160a01b038216600090815260036020526040812080546001929061365a908490613ec0565b909155505060008181526002602052604080822080546001600160a01b0319166001600160a01b03861690811790915590518392907fddf252ad1be2c89b69c2b068fc378daa952ba7f163c4a11628f55a4df523b3ef908290a45050565b6040518060a001604052806005905b60608152602001906001900390816136c75790505090565b8280546136eb90613c6a565b90600052602060002090601f01602090048101928261370d5760008555613753565b82601f1061372657805160ff1916838001178555613753565b82800160010185558215613753579182015b82811115613753578251825591602001919060010190613738565b5061375f9291506137b2565b5090565b6040805160e08101909152606081526006602082016136c7565b604080516101208101909152606081526008602082016136c7565b6040805160c08101909152606081526005602082016136c7565b5b8082111561375f57600081556001016137b3565b6001600160e01b03198116811461216f57600080fd5b6000602082840312156137ef57600080fd5b8135610849816137c7565b60005b838110156138155781810151838201526020016137fd565b838111156111a75750506000910152565b6000815180845261383e8160208601602086016137fa565b601f01601f19169290920160200192915050565b6020815260006108496020830184613826565b60006020828403121561387757600080fd5b5035919050565b80356001600160a01b038116811461389557600080fd5b919050565b600080604083850312156138ad57600080fd5b6138b68361387e565b946020939093013593505050565b6000602082840312156138d657600080fd5b6108498261387e565b600081518084526020808501945080840160005b8381101561390f578151875295820195908201906001016138f3565b509495945050505050565b60208152600061084960208301846138df565b6000806040838503121561394057600080fd5b82359150602083013561ffff8116811461395957600080fd5b809150509250929050565b60008060006060848603121561397957600080fd5b6139828461387e565b92506139906020850161387e565b9150604084013590509250925092565b600080604083850312156139b357600080fd5b50508035926020909101359150565b801515811461216f57600080fd5b600080604083850312156139e357600080fd5b6139ec8361387e565b91506020830135613959816139c2565b634e487b7160e01b600052604160045260246000fd5b600067ffffffffffffffff80841115613a2d57613a2d6139fc565b604051601f8501601f19908116603f01168101908282118183101715613a5557613a556139fc565b81604052809350858152868686011115613a6e57600080fd5b858560208301376000602087830101525050509392505050565b60008060008060808587031215613a9e57600080fd5b613aa78561387e565b9350613ab56020860161387e565b925060408501359150606085013567ffffffffffffffff811115613ad857600080fd5b8501601f81018713613ae957600080fd5b613af887823560208401613a12565b91505092959194509250565b600082601f830112613b1557600080fd5b61084983833560208501613a12565b60008060408385031215613b3757600080fd5b823567ffffffffffffffff80821115613b4f57600080fd5b613b5b86838701613b04565b93506020850135915080821115613b7157600080fd5b50613b7e85828601613b04565b9150509250929050565b61018081526000613b9d61018083018f613826565b61ffff9d8e166020840152604083019c909c525063ffffffff9990991660608a0152968a1660808901529490981660a087015260c086019290925260e08501526101008401526101208301949094526101408201939093526101600191909152919050565b60008060408385031215613c1557600080fd5b613c1e8361387e565b9150613c2c6020840161387e565b90509250929050565b600060208284031215613c4757600080fd5b813567ffffffffffffffff811115613c5e57600080fd5b611b7c84828501613b04565b600181811c90821680613c7e57607f821691505b60208210811415611a3a57634e487b7160e01b600052602260045260246000fd5b634e487b7160e01b600052603260045260246000fd5b634e487b7160e01b600052601160045260246000fd5b6000600019821415613cdf57613cdf613cb5565b5060010190565b600082821015613cf857613cf8613cb5565b500390565b634e487b7160e01b600052601260045260246000fd5b600082613d2257613d22613cfd565b500690565b600061ffff80831681811415613d3f57613d3f613cb5565b6001019392505050565b60008151613d5b8185602086016137fa565b9290920192915050565b600080845481600182811c915080831680613d8157607f831692505b6020808410821415613da157634e487b7160e01b86526022600452602486fd5b818015613db55760018114613dc657613df3565b60ff19861689528489019650613df3565b60008b81526020902060005b86811015613deb5781548b820152908501908301613dd2565b505084890196505b505050505050611dc98185613d49565b868152856020820152841515604082015283606082015282608082015260c060a08201526000613e3660c08301846138df565b98975050505050505050565b60008251613e548184602087016137fa565b9190910192915050565b7f646174613a696d6167652f7376672b786d6c3b6261736536342c000000000000815260008251613e9681601a8501602087016137fa565b91909101601a0192915050565b600060208284031215613eb557600080fd5b8151610849816139c2565b60008219821115613ed357613ed3613cb5565b500190565b6000816000190483118215151615613ef257613ef2613cb5565b500290565b600081613f0657613f06613cb5565b506000190190565b600082613f1d57613f1d613cfd565b500490565b600060ff821660ff84168060ff03821115613f3f57613f3f613cb5565b019392505050565b60208082526032908201527f4552433732313a207472616e7366657220746f206e6f6e20455243373231526560408201527131b2b4bb32b91034b6b83632b6b2b73a32b960711b606082015260800190565b600088516020613fac8285838e016137fa565b895191840191613fbf8184848e016137fa565b8951920191613fd18184848d016137fa565b8851920191613fe38184848c016137fa565b8751920191613ff58184848b016137fa565b86519201916140078184848a016137fa565b855192019161401981848489016137fa565b919091019a9950505050505050505050565b6000835161403d8184602088016137fa565b8351908301906140518183602088016137fa565b01949350505050565b6001600160a01b038581168252841660208201526040810183905260806060820181905260009061408d90830184613826565b9695505050505050565b6000602082840312156140a957600080fd5b8151610849816137c7565b60008a516140c6818460208f016137fa565b8a516140d88183860160208f016137fa565b8a5191840101906140ed818360208e016137fa565b89516140ff8183850160208e016137fa565b8951929091010190614115818360208c016137fa565b87516141278183850160208c016137fa565b875192909101019061413d818360208a016137fa565b855161414f8183850160208a016137fa565b85519290910101906141658183602088016137fa565b019b9a5050505050505050505050565b6000875160206141888285838d016137fa565b88519184019161419b8184848d016137fa565b88519201916141ad8184848c016137fa565b87519201916141bf8184848b016137fa565b86519201916141d18184848a016137fa565b85519201916141e381848489016137fa565b91909101999850505050505050505056fe2220643d224d3137203068314d3138203168324d3139203268334d3230203368334d3139203468354d3138203568344d3233203568324d3138203668384d3137203768394d3137203868344d3137203968344d313820313068344d313820313168364d313920313268364d313920313368374d313920313468374d313920313568384d323120313668364d323120313768364d323120313868364d323120313968364d323120323068364d323120323168354d323120323268354d3231203233683522202f3e2220643d224d313320323468324d313220323568324d313120323668324d313020323768324d313020323868324d313120323968324d3132203330683222202f3e2220643d224d313220313968334d3920323068364d3920323168364d3920323268364d3920323368364d3920323468344d3820323568344d3820323668334d3820323768324d3820323868324d3920323968324d3130203330683222202f3e2220643d224d32203468354d33203568384d34203668384d35203768374d3131203868324d36203968344d3720313068354d3820313168364d313320313268314d313020313368324d313120313468324d313220313568354d3135203136683322202f3e2220643d224d313820323468354d323420323468324d313820323568354d323520323568344d313820323668354d323520323668354d313920323768394d323920323768324d32302032386831324d32312032396831314d3232203330683422202f3e2220643d224d36203468314d3132203468314d37203568314d3132203568314d38203668314d3133203668314d39203768314d3133203768314d39203868314d3134203868314d33203968314d3130203968314d3134203968314d3420313068324d313120313068314d313520313068314d3620313168314d313220313168314d313520313168314d3720313268324d313320313268314d313520313268314d3920313368314d313420313368314d313620313368314d313020313468324d313420313468314d313620313468354d313220313568314d313520313568314d313720313568344d313320313668324d313620313668354d313520313768364d313520313868364d313520313968364d313520323068364d313520323168364d313520323268364d3135203233683622202f3e2220643d224d3420313368324d3320313468314d3220313568314d3220313668314d3320313768314d3320313868314d34203139683122202f3e3c70617468207374726f6b653d22236666666666652220643d224d32322035683122202f3e3c73766720786d6c6e733d22687474703a2f2f7777772e77332e6f72672f323030302f737667222076696577426f783d2230202d302e35203332203332222073686170652d72656e646572696e673d2263726973704564676573223e2220643d224d313220313968334d3920323068364d3920323168364d3820323268374d39203233683622202f3e4142434445464748494a4b4c4d4e4f505152535455565758595a6162636465666768696a6b6c6d6e6f707172737475767778797a303132333435363738392b2f2220643d224d313920313468324d313820313568334d313820313668334d313620313768354d313520313868364d313520313968364d313520323068364d313520323168364d313520323268364d3135203233683622202f3e2220643d224d31203368374d37203468354d3131203568324d3132203668314d3132203768324d35203868364d3133203868314d3130203968354d313220313068334d313420313168314d3820313268354d313420313268324d313220313368354d313320313468384d313720313568344d313820313668334d313620313768354d313520313868364d313520313968364d313520323068364d313520323168364d313520323268364d3135203233683622202f3e2220643d224d3131203468314d36203568314d38203568344d36203668324d39203668344d36203768334d3130203768334d35203868344d3130203868344d34203968364d3131203968334d3620313068354d313220313068334d3720313168354d313320313168324d3920313268344d313420313268314d313020313368344d313520313368314d313220313468324d313520313468314d313320313568324d313620313568314d3135203136683122202f3e2220643d224d323320323468324d323320323568324d323320323668324d323320323768324d323320323868324d323420323968324d3235203330683222202f3e2220643d224d323320323468354d323420323568364d323620323668314d323820323668314d333020323668314d323620323768314d323920323768314d3331203237683122202f3e2220643d224d313920313468324d313820313568334d313820313668334d313620313768354d313520313868364d313520313968364d313520323068364d313520323168364d313520323268364d313520323368364d313520323468344d313420323568344d313420323668334d313420323768324d313420323868324d313520323968324d3136203330683222202f3e2220643d224d3136203368314d3134203468324d3132203568334d3131203668334d3130203768354d39203868324d3132203868344d38203968384d3820313068394d313320313168344d313320313268344d313320313368344d313320313468384d313320313568384d313320313668384d313320313768384d313320313868384d313520313968364d313520323068364d313520323168364d313520323268364d3135203233683622202f3e2220643d224d3420313468314d3320313568314d3320313668324d3420313768314d3420313868324d3520313968344d3520323068344d37203231683222202f3e2220643d224d323120323468324d323120323568324d323120323668324d323120323768324d323120323868324d323120323968334d3231203330683422202f3e2220643d224d323120323468324d323120323568324d323120323668324d323120323768324d323120323868344d323120323968314d323320323968314d323520323968314d323120333068314d323420333068314d3236203330683122202f3e2220643d224d313920323468324d313820323568324d313720323668324d313620323768324d313620323868324d313720323968324d3138203330683222202f3ea2646970667358221220b126159989f34c937d6f330f5b9ef2b1c3aee60e0af9544cd431fbd6fac8ac7e64736f6c634300080a0033",
  "linkReferences": {
    "contracts/DragonBattle.sol": {
      "DragonAffinity": [
        {
          "length": 20,
          "start": 5935
        },
        {
          "length": 20,
          "start": 6103
        }
      ]
    }
  },
  "deployedLinkReferences": {
    "contracts/DragonBattle.sol": {
      "DragonAffinity": [
        {
          "length": 20,
          "start": 5017
        },
        {
          "length": 20,
          "start": 5185
        }
      ]
    }
  }
}